{
  "contractName": "Ponzi",
  "abi": [
    {
      "constant": false,
      "inputs": [
        {
          "name": "referrer",
          "type": "address"
        }
      ],
      "name": "signup",
      "outputs": [],
      "payable": true,
      "stateMutability": "payable",
      "type": "function"
    },
    {
      "constant": true,
      "inputs": [
        {
          "name": "a",
          "type": "address"
        }
      ],
      "name": "checkReferrer",
      "outputs": [
        {
          "name": "",
          "type": "address"
        }
      ],
      "payable": false,
      "stateMutability": "view",
      "type": "function"
    },
    {
      "constant": false,
      "inputs": [
        {
          "name": "amount",
          "type": "uint256"
        }
      ],
      "name": "changeInvestment",
      "outputs": [],
      "payable": false,
      "stateMutability": "nonpayable",
      "type": "function"
    },
    {
      "inputs": [],
      "payable": false,
      "stateMutability": "nonpayable",
      "type": "constructor"
    }
  ],
  "bytecode": "0x6060604052341561000f57600080fd5b33600160006101000a81548173ffffffffffffffffffffffffffffffffffffffff021916908373ffffffffffffffffffffffffffffffffffffffff160217905550600160009054906101000a900473ffffffffffffffffffffffffffffffffffffffff16600080600160009054906101000a900473ffffffffffffffffffffffffffffffffffffffff1673ffffffffffffffffffffffffffffffffffffffff1673ffffffffffffffffffffffffffffffffffffffff16815260200190815260200160002060006101000a81548173ffffffffffffffffffffffffffffffffffffffff021916908373ffffffffffffffffffffffffffffffffffffffff16021790555060016002819055506105b4806101286000396000f300606060405260043610610057576000357c0100000000000000000000000000000000000000000000000000000000900463ffffffff168063316df4b51461005c57806369c468211461008a578063b5e2bfa414610103575b600080fd5b610088600480803573ffffffffffffffffffffffffffffffffffffffff16906020019091905050610126565b005b341561009557600080fd5b6100c1600480803573ffffffffffffffffffffffffffffffffffffffff16906020019091905050610294565b604051808273ffffffffffffffffffffffffffffffffffffffff1673ffffffffffffffffffffffffffffffffffffffff16815260200191505060405180910390f35b341561010e57600080fd5b6101246004808035906020019091905050610395565b005b6000600360009054906101000a900460ff1615151561014457600080fd5b6001600360006101000a81548160ff021916908315150217905550349050600254811015151561017357600080fd5b600073ffffffffffffffffffffffffffffffffffffffff166000808473ffffffffffffffffffffffffffffffffffffffff1673ffffffffffffffffffffffffffffffffffffffff16815260200190815260200160002060009054906101000a900473ffffffffffffffffffffffffffffffffffffffff1673ffffffffffffffffffffffffffffffffffffffff161415151561020d57600080fd5b6102756000808473ffffffffffffffffffffffffffffffffffffffff1673ffffffffffffffffffffffffffffffffffffffff16815260200190815260200160002060009054906101000a900473ffffffffffffffffffffffffffffffffffffffff16826103fb565b6000600360006101000a81548160ff0219169083151502179055505050565b60008073ffffffffffffffffffffffffffffffffffffffff166000808473ffffffffffffffffffffffffffffffffffffffff1673ffffffffffffffffffffffffffffffffffffffff16815260200190815260200160002060009054906101000a900473ffffffffffffffffffffffffffffffffffffffff1673ffffffffffffffffffffffffffffffffffffffff161415151561032f57600080fd5b6000808373ffffffffffffffffffffffffffffffffffffffff1673ffffffffffffffffffffffffffffffffffffffff16815260200190815260200160002060009054906101000a900473ffffffffffffffffffffffffffffffffffffffff169050919050565b600160009054906101000a900473ffffffffffffffffffffffffffffffffffffffff1673ffffffffffffffffffffffffffffffffffffffff163373ffffffffffffffffffffffffffffffffffffffff161415156103f157600080fd5b8060028190555050565b5b6103e8811115610522578173ffffffffffffffffffffffffffffffffffffffff166108fc60028381151561042c57fe5b049081150290604051600060405180830381858888f19350505050151561045257600080fd5b60028181151561045e57fe5b0490506000808373ffffffffffffffffffffffffffffffffffffffff1673ffffffffffffffffffffffffffffffffffffffff16815260200190815260200160002060009054906101000a900473ffffffffffffffffffffffffffffffffffffffff169150600160009054906101000a900473ffffffffffffffffffffffffffffffffffffffff1673ffffffffffffffffffffffffffffffffffffffff168273ffffffffffffffffffffffffffffffffffffffff16141561051d57610522565b6103fc565b600160009054906101000a900473ffffffffffffffffffffffffffffffffffffffff1673ffffffffffffffffffffffffffffffffffffffff166108fc829081150290604051600060405180830381858888f19350505050151561058457600080fd5b50505600a165627a7a72305820cad73b8e4120ef96d72d2fe610b6481db152a31f5da94555c4f79c5f7d535d9f0029",
  "source": "pragma solidity ^0.4.18;\n\ncontract Ponzi {\n  mapping (address => address) referrals;\n  address private owner;\n  uint private min_investment;\n  bool locked;\n\n  function Ponzi() {\n    owner = msg.sender;\n    referrals[owner] = owner;\n    min_investment = 1;\n  }\n\n  modifier onlyCreator() {\n    require(msg.sender == owner);\n    _;\n  }\n\n  modifier onlyOnce() {\n    require(!locked);\n    locked = true;\n    _;\n    locked = false;\n  }\n\n  function signup(address referrer) onlyOnce payable {\n    uint investment = msg.value;\n    require(investment >= min_investment);\n    require(referrals[referrer] != address(0));\n\n    payout(referrals[referrer], investment);\n  }\n\n  function payout(address recipient, uint amount) private {\n    while (amount > 1000) {\n      recipient.transfer(amount/2);\n      amount = amount/ 2;\n      recipient = referrals[recipient];\n      if (recipient == owner) { break; }\n    }\n    owner.transfer(amount);\n  }\n\n  function changeInvestment(uint amount) onlyCreator {\n    min_investment = amount;\n  }\n\n  function checkReferrer(address a) constant returns(address) {\n    require(referrals[a] != address(0));\n    return referrals[a];\n  }\n}\n",
  "sourcePath": "/Users/alberthu/Documents/ponzi/contracts/Ponzi.sol",
  "compiler": {
    "name": "solc",
    "version": "0.4.18+commit.9cf6e910.Emscripten.clang"
  },
  "schemaVersion": "1.0.1",
  "updatedAt": "2017-11-11T09:31:27.246Z"
}